:020000040800F2
:1000000000000220BD5D0008FD58000809590008E5
:100010000F590008155900081B590008000000007E
:10002000000000000000000000000000215900084E
:100030002D590008000000003959000845590008F2
:100040000D5E00080D5E00080D5E00080D5E0008E4
:100050000D5E00080D5E00080D5E00080D5E0008D4
:100060000D5E00080D5E00080D5E00080D5E0008C4
:100070000D5E00080D5E00080D5E00080D5E0008B4
:100080000D5E00080D5E00080D5E00080D5E0008A4
:100090000D5E00080D5E00080D5E00080D5E000894
:1000A0000D5E00080D5E00080D5E00080D5E000884
:1000B0000D5E00080D5E00080D5E00080D5E000874
:1000C0000D5E00080D5E00080D5E00080D5E000864
:1000D0000D5E00080D5E00080D5E00080D5E000854
:1000E0000D5E00080D5E00080D5E00080D5E000844
:1000F0000D5E00080D5E00080D5E00080D5E000834
:100100000D5E00080D5E00080D5E00080D5E000823
:100110000D5E00080D5E00080D5E00080D5E000813
:100120000D5E00080D5E00080D5E00080D5E000803
:100130000D5E00080D5E00080D5E00080D5E0008F3
:100140000D5E00080D5E00080D5E00080D5E0008E3
:100150000D5E00080D5E00080D5E00080D5E0008D3
:100160000D5E00080D5E00080D5E00080D5E0008C3
:100170000D5E00080D5E00080D5E00080000000026
:080180000D5E00080D5E000891
:1001880010B5054C237833B9044B13B10448AFF3C9
:1001980000800123237010BD4404002000000000EB
:1001A800CC60000808B5034B1BB103490348AFF303
:1001B800008008BD0000000048040020CC60000852
:1001C800154B002B08BF134B9D46A3F5803A002121
:1001D8008B460F461348144A121A05F049FE0F4B76
:1001E800002B00D098470E4B002B00D098470020DA
:1001F800002104000D000D48002802D00C4805F02D
:10020800E9FE05F011FE2000290005F0ABFA05F023
:10021800FBFD00BF00000800000000000000000017
:100228000000000044040020A8040020DD5F00084E
:10023800E95F000880B500AF032000F085FB0020CF
:1002480000F03EF805F02EFB0023184680BD80B56F
:1002580000AF144B4FF0FF321A62124B00221A62A1
:10026800104B4FF0FF325A620E4B00225A620D4B70
:100278004FF0FF321A610B4B00221A61094B4FF005
:10028800FF325A61074B00225A61064B4FF0FF328A
:100298009A61044B00229A6100F00CF8002318467A
:1002A80080BD00BF0038024080B400AF00BFBD462B
:1002B80080BC704780B400AF00BFBD4680BC7047AB
:1002C80080B582B000AF7860124B1A68124B1B7869
:1002D80019464FF47A73B3FBF1F3B2FBF3F3184604
:1002E80000F079FB0346002B01D001230EE07B6868
:1002F8000F2B0AD8002279684FF0FF3000F02FFB4F
:10030800064A7B681360002300E00123184608377B
:10031800BD4680BD0C00002008000020040000201D
:1003280080B400AF054B1B781A46054B1B68134475
:10033800034A136000BFBD4680BC70470800002018
:100348006004002080B400AF024B1B681846BD460D
:1003580080BC70476004002080B400AF024B1B686B
:100368001846BD4680BC70470400002080B584B0A4
:1003780000AF0346FB710023FB730A4B1B78FA7925
:100388009A4209D0074AFB791370074B1B68184635
:10039800FFF796FF0346FB73FB7B18461037BD46F5
:1003A80080BD00BF080000200400002080B400AF1A
:1003B800024B1B781846BD4680BC704708000020D9
:1003C80080B584B000AF7860FFF7BCFFB8607B6889
:1003D800FB60FB68B3F1FF3F05D0094B1B781A4659
:1003E800FB681344FB6000BFFFF7ACFF0246BB6825
:1003F800D31AFA689A42F7D800BF1037BD4680BDB5
:100408000800002080B400AF044B1B68034A23F0A7
:100418000203136000BFBD4680BC704710E000E0D7
:1004280080B400AF044B1B68034A43F00203136017
:1004380000BFBD4680BC704710E000E080B400AF4C
:10044800024B1846BD4680BC704700BF0005070137
:1004580080B400AF034B1B681B0C1846BD4680BC1C
:10046800704700BF002004E080B400AF034B1B6856
:10047800C3F30B031846BD4680BC7047002004E058
:1004880080B400AF044B5B68034A43F00103536038
:1004980000BFBD4680BC7047002004E080B400AFB8
:1004A800044B5B68034A23F00103536000BFBD4659
:1004B80080BC7047002004E080B400AF044B5B6848
:1004C800034A43F00203536000BFBD4680BC704737
:1004D800002004E080B400AF044B5B68034A23F0BB
:1004E8000203536000BFBD4680BC7047002004E093
:1004F80080B400AF044B5B68034A43F004035360C5
:1005080000BFBD4680BC7047002004E080B400AF47
:10051800044B5B68034A23F00403536000BFBD46E5
:1005280080BC7047002004E080B400AF034B012278
:100538001A6000BFBD4680BC704700BF0004274258
:1005480080B400AF034B00221A6000BFBD4680BCD8
:10055800704700BF0004274280B400AF024B1B68FD
:100568001846BD4680BC7047107AFF1F80B400AFA4
:10057800024B1B681846BD4680BC7047147AFF1FA3
:1005880080B400AF024B1B681846BD4680BC70475C
:10059800187AFF1F80B485B000AF78607B6803F0DD
:1005A8000703FB600C4BDB68BB60BA684FF6FF03C0
:1005B8001340BB60FB681A02BB68134343F0BF6378
:1005C80043F40033BB60044ABB68D36000BF1437F0
:1005D800BD4680BC704700BF00ED00E080B400AFAE
:1005E800044BDB681B0A03F007031846BD4680BCB2
:1005F800704700BF00ED00E080B483B000AF034651
:10060800FB7197F90730002B0BDBFB7903F01F0216
:10061800064997F907305B09012000FA02F241F810
:10062800232000BF0C37BD4680BC704700E100E0C6
:1006380080B483B000AF0346FB7197F90730002BF5
:1006480010DBFB7903F01F02094997F907305B09B2
:10065800012000FA02F2203341F82320BFF34F8F24
:10066800BFF36F8F00BF0C37BD4680BC704700BF1B
:1006780000E100E080B483B000AF0346FB7197F956
:100688000730002B0EDB0A4A97F907305B09403325
:1006980052F82320FB7903F01F0322FA03F303F037
:1006A800010300E0002318460C37BD4680BC7047A4
:1006B80000E100E080B483B000AF0346FB7197F916
:1006C8000730002B0CDBFB7903F01F02074997F971
:1006D80007305B09012000FA02F2403341F8232079
:1006E80000BF0C37BD4680BC704700BF00E100E08A
:1006F80080B483B000AF0346FB7197F90730002B35
:100708000CDBFB7903F01F02074997F907305B09F7
:10071800012000FA02F2603341F8232000BF0C37B1
:10072800BD4680BC704700BF00E100E080B483B0E4
:1007380000AF0346FB7197F90730002B0EDB0A4A1E
:1007480097F907305B09803352F82320FB7903F0CF
:100758001F0322FA03F303F0010300E00023184605
:100768000C37BD4680BC704700E100E080B483B020
:1007780000AF03463960FB7197F90730002B0ADB9D
:100788003B68DAB20C4997F907301201D2B20B4430
:1007980083F800230AE03B68DAB20849FB7903F0E2
:1007A8000F03043B1201D2B20B441A7600BF0C3778
:1007B800BD4680BC704700BF00E100E000ED00E0EE
:1007C80080B483B000AF0346FB7197F90730002B64
:1007D80009DB0C4A97F90730134493F80033DBB26E
:1007E8001B09DBB209E0084AFB7903F00F03043B5D
:1007F80013441B7EDBB21B09DBB218460C37BD461F
:1008080080BC704700E100E000ED00E080B489B0F2
:1008180000AFF860B9607A60FB6803F00703FB611A
:10082800FB69C3F10703042B28BF0423BB61FB69E1
:100838000433062B02D9FB69033B00E000237B61EC
:100848004FF0FF32BB6902FA03F3DA43BB681A4080
:100858007B699A404FF0FF317B6901FA03F3D94372
:100868007B680B40134318462437BD4680BC70474D
:1008780080B489B000AFF860B9607A603B60BB684B
:1008880003F00703FB61FB69C3F10703042B28BFCF
:100898000423BB61FB690433062B02D9FB69033BC4
:1008A80000E000237B61FA687B69DA404FF0FF3192
:1008B800BB6901FA03F3DB431A407B681A604FF007
:1008C800FF327B6902FA03F3DA43FB681A403B689C
:1008D8001A6000BF2437BD4680BC704780B400AFA3
:1008E800BFF34F8F054BDB6803F4E0620349044B09
:1008F8001343CB60BFF34F8F00BFFDE700ED00E06F
:100908000400FA0580B582B000AF78607B68013BCF
:10091800B3F1807F01D301230FE00A4A7B68013BD2
:1009280053600F214FF0FF30FFF720FF054B0022E7
:100938009A60044B07221A60002318460837BD4600
:1009480080BD00BF10E000E080B582B000AF7860E5
:100958007868FFF71FFE00BF0837BD4680BD80B529
:1009680086B000AF0346B9607A60FB7300237B61F1
:10097800FFF734FE78617A68B9687869FFF746FF4F
:10098800024697F90F3011461846FFF7EFFE00BFF1
:100998001837BD4680BD80B582B000AF0346FB71F5
:1009A80097F907301846FFF727FE00BF0837BD46FE
:1009B80080BD80B582B000AF0346FB7197F9073060
:1009C8001846FFF735FE00BF0837BD4680BD80B525
:1009D80000AFFFF783FF80B582B000AF786078681A
:1009E800FFF790FF034618460837BD4680BD80B420
:1009F80000AFBFF35F8F064B5B6A054A23F4803371
:100A08005362044B00225A6000BFBD4680BC704749
:100A180000ED00E090ED00E080B483B000AF7860B6
:100A2800094A7B6843F001035360084B5B6A074A35
:100A380043F480335362BFF34F8FBFF36F8F00BF10
:100A48000C37BD4680BC704790ED00E000ED00E03B
:100A580080B483B000AF78607B685A781D4B9A6089
:100A68007B681B78002B29D01A4A7B685B68D360A7
:100A78007B681B7B1A077B68DB7A1B061A437B683B
:100A88009B7ADB041A437B685B7B9B041A437B6875
:100A98009B7B5B041A437B68DB7B1B041A437B68E4
:100AA8005B7A1B021A437B681B7A5B0013437A68E4
:100AB80012781146074A0B43136105E0054B0022E3
:100AC800DA60044B00221A6100BF0C37BD4680BCB7
:100AD800704700BF90ED00E080B500AFFFF77EFDE6
:100AE8000346184680BD80B584B000AFB9607A600F
:100AF8003B600346FB7397F90F301846FFF760FE1B
:100B08003B687A68B968FFF7B3FE00BF1037BD4687
:100B180080BD80B582B000AF0346FB7197F90730FE
:100B28001846FFF7C7FD00BF0837BD4680BD80B532
:100B380082B000AF0346FB7197F907301846FFF7FC
:100B480099FD034618460837BD4680BD80B582B07A
:100B580000AF0346FB7197F907301846FFF7C8FD49
:100B680000BF0837BD4680BD80B582B000AF0346E0
:100B7800FB7197F907301846FFF7D8FD034618466A
:100B88000837BD4680BD80B483B000AF78607B680D
:100B9800042B06D1084B1B68074A43F00403136073
:100BA80005E0054B1B68044A23F00403136000BFEB
:100BB8000C37BD4680BC704710E000E080B500AF40
:100BC80000F002F800BF80BD80B400AF00BFBD4692
:100BD80080BC704780B586B000AF786000237B6129
:100BE800FFF7B0FB38617B68002B01D1012399E046
:100BF8007B68002283F834207B68022283F8352042
:100C08007B681B681A687B681B6822F001021A60FF
:100C18000FE0FFF797FB02463B69D31A052B08D96B
:100C28007B6820225A657B68032283F835200323DA
:100C380078E07B681B681B6803F00103002BE8D190
:100C48007B681B681B687B617A69384B13407B6142
:100C58007B685A687B689B681A437B68DB681A4321
:100C68007B681B691A437B685B691A437B689B69CD
:100C78001A437B68DB691A437B681B6A13437A69EA
:100C880013437B617B685B6A042B07D17B68DA6A54
:100C98007B681B6B13437A6913437B617B681B6812
:100CA8007A691A607B681B685B697B617B6923F0E2
:100CB80007037B617B685B6A7A6913437B617B68A6
:100CC8005B6A042B17D17B689B6A7A6913437B6143
:100CD8007B68DB6A002B0ED0786800F051FD034674
:100CE800002B08D07B6840225A657B68012283F874
:100CF8003520012316E07B681B687A695A61786899
:100D080000F00AFD0346FB607B68DB6D3F229A40DA
:100D1800FB689A607B6800225A657B68012283F829
:100D28003520002318461837BD4680BD3F8010F097
:100D380080B584B000AF78607B68002B01D10123B7
:100D480050E07B6893F83530DBB2022B01D10223E7
:100D580048E07B681B681A687B681B6822F0010200
:100D68001A607B681B6800221A607B681B68002277
:100D78005A607B681B6800229A607B681B680022A7
:100D8800DA607B681B6800221A617B681B68212275
:100D98005A61786800F0C0FC0346FB607B6800225B
:100DA800DA637B6800221A647B6800225A647B68D5
:100DB80000229A647B680022DA647B6800221A6544
:100DC8007B68DB6D3F229A40FB689A607B68002253
:100DD8005A657B68002283F835207B68002283F8F7
:100DE8003420002318461037BD4680BD80B586B034
:100DF80000AFF860B9607A603B600023FB75FB6860
:100E080093F83430012B01D1022326E0FB6801223C
:100E180083F83420FB6893F83530DBB2012B15D109
:100E2800FB68022283F83520FB6800225A653B687C
:100E38007A68B968F86800F042FCFB681B681A68B1
:100E4800FB681B6842F001021A6005E0FB6800229B
:100E580083F834200223FB75FB7D18461837BD46FE
:100E680080BD80B586B000AFF860B9607A603B603D
:100E78000023FB75FB689B6D3B61FB6893F834307E
:100E8800012B01D1022348E0FB68012283F83420BA
:100E9800FB6893F83530DBB2012B37D1FB680222AF
:100EA80083F83520FB6800225A653B687A68B96880
:100EB800F86800F004FCFB68DB6D3F229A403B6950
:100EC8009A60FB681B681A68FB681B6842F0160288
:100ED8001A60FB681B685A69FB681B6842F080024D
:100EE8005A61FB681B6C002B07D0FB681B681A68EB
:100EF800FB681B6842F008021A60FB681B681A68E6
:100F0800FB681B6842F001021A6005E0FB680022DA
:100F180083F834200223FB75FB7D18461837BD463D
:100F280080BD80B584B000AF78607B689B6DFB6046
:100F3800FFF708FAB8607B6893F83530DBB2022B0C
:100F480008D07B6880225A657B68002283F83420A9
:100F5800012352E07B681B681A687B681B6822F0D3
:100F680016021A607B681B685A697B681B6822F046
:100F780080025A617B681B6C002B03D17B689B6CD9
:100F8800002B07D07B681B681A687B681B6822F0F7
:100F980008021A607B681B681A687B681B6822F065
:100FA80001021A6013E0FFF7CDF90246BB68D31AB5
:100FB800052B0CD97B6820225A657B68002283F8B0
:100FC80034207B68032283F83520032315E07B68EF
:100FD8001B681B6803F00103002BE4D17B68DB6D01
:100FE8003F229A40FB689A607B68002283F834208D
:100FF8007B68012283F83520002318461037BD4648
:1010080080BD80B483B000AF78607B6893F83530DA
:10101800DBB2022B04D07B6880225A6501230CE0E6
:101028007B68052283F835207B681B681A687B6813
:101038001B6822F001021A60002318460C37BD46CF
:1010480080BC704780B58AB000AFF8600B467A6004
:10105800FB720023FB77FFF775F9B861FB6893F81B
:101068003530DBB2022B08D0FB6880225A65FB685A
:10107800002283F834200123BFE0FB681B681B684B
:1010880003F48073002B05D0FB684FF480725A6517
:101098000123B2E0FB7A002B06D1FB68DB6D20222E
:1010A80002FA03F37B6205E0FB68DB6D102202FAAB
:1010B80003F37B62FB689B6D7B617B691B683B620A
:1010C8005AE07B68B3F1FF3F17D07B68002B07D04D
:1010D800FFF738F90246BB69D31A7A689A420CD2EC
:1010E800FB6820225A65FB68002283F83420FB68DD
:1010F800012283F8352003237FE07B691B683B626C
:10110800FB68DB6D08229A403B6A1340002B0BD02A
:10111800FB685B6D43F00102FB685A65FB68DB6D99
:1011280008229A407B699A60FB68DB6D01229A402D
:101138003B6A1340002B0BD0FB685B6D43F0020247
:10114800FB685A65FB68DB6D01229A407B699A60EF
:10115800FB68DB6D04229A403B6A1340002B0BD0DE
:10116800FB685B6D43F00402FB685A65FB68DB6D46
:1011780004229A407B699A603A6A7B6A1340002B82
:1011880005D1FB685B6D03F00103002B99D0FB6868
:101198005B6D002B18D0FB685B6D03F00103002B1F
:1011A80012D0F868FFF7BDFEFB68DB6D30229A406D
:1011B8007B699A60FB68002283F83420FB6801226F
:1011C80083F83520012318E0FB7A002B0ED1FB6849
:1011D800DB6D30229A407B699A60FB68002283F8B5
:1011E8003420FB68012283F8352005E0FB68DB6DBD
:1011F80010229A407B699A60FB7F18462837BD46C3
:1012080080BD80B586B000AF78600023BB60934B8B
:101218001B68934AA2FB03239B0A7B617B689B6D37
:101228003B613B691B68FB607B68DB6D08229A4069
:10123800FB681340002B1AD07B681B681B6803F0FF
:101248000403002B13D07B681B681A687B681B6833
:1012580022F004021A607B68DB6D08229A403B6921
:101268009A607B685B6D43F001027B685A657B6816
:10127800DB6D01229A40FB681340002B12D07B687B
:101288001B685B6903F08003002B0BD07B68DB6D68
:1012980001229A403B699A607B685B6D43F00202C9
:1012A8007B685A657B68DB6D04229A40FB681340B3
:1012B800002B12D07B681B681B6803F00203002B0D
:1012C8000BD07B68DB6D04229A403B699A607B688F
:1012D8005B6D43F004027B685A657B68DB6D102206
:1012E8009A40FB681340002B43D07B681B681B683F
:1012F80003F00803002B3CD07B68DB6D10229A407A
:101308003B699A607B681B681B6803F48023002B89
:1013180018D07B681B681B6803F40023002B08D1D6
:101328007B681B6C002B24D07B681B6C7868984703
:101338001FE07B689B6C002B1BD07B689B6C7868DC
:10134800984716E07B681B681B6803F48073002BC2
:1013580007D17B681B681A687B681B6822F0080243
:101368001A607B681B6C002B03D07B681B6C786849
:1013780098477B68DB6D20229A40FB681340002B5E
:1013880000F08F807B681B681B6803F01003002B3C
:1013980000F087807B68DB6D20229A403B699A6069
:1013A8007B6893F83530DBB2052B36D17B681B6838
:1013B8001A687B681B6822F016021A607B681B6833
:1013C8005A697B681B6822F080025A617B681B6C33
:1013D800002B03D17B689B6C002B07D07B681B68B4
:1013E8001A687B681B6822F008021A607B68DB6D4C
:1013F8003F229A403B699A607B68002283F8342038
:101408007B68012283F835207B681B6D002B7ED01A
:101418007B681B6D7868984779E07B681B681B6858
:1014280003F48023002B1DD07B681B681B6803F422
:101438000023002B08D17B685B6C002B31D07B68C4
:101448005B6C786898472CE07B68DB6B002B28D0B6
:101458007B68DB6B7868984723E000BF0C000020AE
:10146800B5814E1B7B681B681B6803F48073002BD7
:101478000FD17B681B681A687B681B6822F0100212
:101488001A607B68002283F834207B68012283F885
:1014980035207B68DB6B002B03D07B68DB6B7868BF
:1014A80098477B685B6D002B32D07B685B6D03F0DF
:1014B8000103002B22D07B68052283F835207B6846
:1014C8001B681A687B681B6822F001021A60BB68F7
:1014D8000133BB607A699A4207D37B681B681B6833
:1014E80003F00103002BF2D100E000BF7B6800226B
:1014F80083F834207B68012283F835207B68DB6C15
:10150800002B05D07B68DB6C7868984700E000BF4B
:101518001837BD4680BD80B487B000AFF8600B4671
:101528007A60FB720023FB75FB6893F83430012B5B
:1015380001D102233DE0FB68012283F83420FB68D7
:1015480093F83530DBB2012B2AD1FB7A052B2AD848
:1015580001A252F823F000BF791500088115000890
:10156800891500089115000899150008A1150008AB
:10157800FB687A68DA6317E0FB687A681A6413E034
:10158800FB687A685A640FE0FB687A689A640BE033
:10159800FB687A68DA6407E0FB687A681A6503E032
:1015A8000123FB7500E000BFFB68002283F83420AC
:1015B800FB7D18461C37BD4680BC704780B485B09B
:1015C80000AF78600B46FB700023FB737B6893F8D1
:1015D8003430012B01D1022354E07B68012283F8C7
:1015E80034207B6893F83530DBB2012B43D1FB788C
:1015F800062B3CD801A252F823F000BF21160008A0
:101608002916000831160008391600084116000886
:1016180049160008511600087B680022DA632CE09E
:101628007B6800221A6428E07B6800225A6424E060
:101638007B6800229A6420E07B680022DA641CE060
:101648007B6800221A6518E07B680022DA637B68F1
:1016580000221A647B6800225A647B6800229A641C
:101668007B680022DA647B6800221A6505E00123A2
:10167800FB7300BF01E00123FB737B68002283F842
:101688003420FB7B18461437BD4680BC704780B4B5
:1016980083B000AF78607B6893F83530DBB21846CA
:1016A8000C37BD4680BC704780B483B000AF78600B
:1016B8007B685B6D18460C37BD4680BC704780B4AC
:1016C80085B000AFF860B9607A603B60FB681B6862
:1016D8001A68FB681B6822F480221A60FB681B6882
:1016E8003A685A60FB689B68402B08D1FB681B6806
:1016F8007A689A60FB681B68BA68DA6007E0FB687A
:101708001B68BA689A60FB681B687A68DA6000BF71
:101718001437BD4680BC704780B485B000AF786090
:101728007B681B68DBB2103B134AA2FB03231B092F
:10173800FB60124AFB6813441B781A467B68DA651B
:10174800FB68032B09D97B681B6823F47F7323F09C
:1017580003031A1D7B689A6507E07B681B6823F4FE
:101768007F7323F003037A6893657B689B6D184643
:101778001437BD4680BC7047ABAAAAAAE860000827
:1017880080B485B000AF78600023FB737B689B6AE8
:10179800BB607B689B69002B1FD1BB68032B56D8A5
:1017A80001A252F823F000BFC1170008D3170008A0
:1017B800C1170008571800087B68DB6A03F08073BC
:1017C800002B46D00123FB7343E07B68DB6AB3F14F
:1017D800C07F40D10123FB733DE07B689B69B3F573
:1017E800005F21D1BB68032B37D801A252F823F040
:1017F800091800080F18000809180008211800081F
:101808000123FB7330E07B68DB6A03F08073002BF5
:1018180025D00123FB7322E07B68DB6AB3F1C07F2C
:101828001FD10123FB731CE0BB68022B03D9BB68E3
:10183800032B03D018E00123FB7315E07B68DB6AF8
:1018480003F08073002B0ED00123FB730BE000BF65
:101858000AE000BF08E000BF06E000BF04E000BFE8
:1018680002E000BF00E000BFFB7B18461437BD460E
:1018780080BC704780B586B000AFF860B9607A6008
:101888003B600023FB75FB689B68802B06D1FB68D7
:101898004FF480725A650123FB7531E0FB6893F8B9
:1018A8003430012B01D102232BE0FB68012283F89D
:1018B8003420FB6893F83530DBB2012B1ED1FB686E
:1018C800022283F83520FB681B681A68FB681B68CE
:1018D80042F480221A60FB681B683A681A613B6A06
:1018E8007A68B968F86801F072F9FB681B681A68C9
:1018F800FB681B6842F001021A6001E00223FB75D5
:10190800FB7D18461837BD4680BD80B586B000AF50
:10191800F860B9607A603B600023FB75FB689B68E0
:10192800802B06D1FB684FF480725A65012301F0C1
:1019380014B9FB68DB6B002B07D0FB685B6C002BD2
:1019480003D0FB68DB6C002B05D1FB6840225A658D
:10195800012301F002B9FB6893F83430012B02D15E
:10196800022301F0FAB8FB68012283F83420FB68EF
:1019780093F83530DBB2012B41F0E880FB68022296
:1019880083F83520FB6800225A65FB681B681A68D3
:10199800FB681B6842F480221A60FB681B683A687F
:1019A8001A613B6A7A68B968F86801F010F9FB684F
:1019B8001B681A46994B9A4260D9FB681B68984A7B
:1019C800934257D0FB681B68964A934250D0FB68F5
:1019D8001B68954A934249D0FB681B68934A934217
:1019E80042D0FB681B68924A93423AD0FB681B6856
:1019F800904A934232D0FB681B688F4A93422AD0A0
:101A0800FB681B688D4A934222D0FB681B688C4A8E
:101A180093421AD0FB681B688A4A934212D0FB682B
:101A28001B68894A93420AD0FB681B68874A93421D
:101A380002D14FF400131EE04FF000631BE04FF497
:101A4800001318E04FF4001315E04FF4001312E0F0
:101A58004FF400630FE04FF400630CE04FF40063B1
:101A680009E04FF4006306E0202304E0202302E0AD
:101A7800202300E02023764AD36051E1FB681B68ED
:101A88001A46744B9A4260D9FB681B68644A9342B1
:101A980057D0FB681B68634A934250D0FB681B68A9
:101AA800614A934249D0FB681B68604A934242D01E
:101AB800FB681B685E4A93423AD0FB681B685D4A24
:101AC800934232D0FB681B685B4A93422AD0FB687A
:101AD8001B685A4A934222D0FB681B68584A9342B3
:101AE8001AD0FB681B68574A934212D0FB681B68E0
:101AF800554A93420AD0FB681B68544A934202D164
:101B08004FF400131EE04FF000631BE04FF4001386
:101B180018E04FF4001315E04FF4001312E04FF4EF
:101B280000630FE04FF400630CE04FF4006309E03A
:101B38004FF4006306E0202304E0202302E0202382
:101B480000E02023424A9360EAE0FB681B681A46DB
:101B5800414B9A4240F28480FB681B68304A9342AA
:101B680057D0FB681B682F4A934250D0FB681B680C
:101B78002D4A934249D0FB681B682C4A934242D0B5
:101B8800FB681B682A4A93423AD0FB681B68294ABB
:101B9800934232D0FB681B68274A93422AD0FB68DD
:101BA8001B68264A934222D0FB681B68244A93424A
:101BB8001AD0FB681B68234A934212D0FB681B6843
:101BC800214A93420AD0FB681B68204A934202D1FB
:101BD8004FF400131EE04FF000631BE04FF40013B6
:101BE80018E04FF4001315E04FF4001312E04FF41F
:101BF80000630FE04FF400630CE04FF4006309E06A
:101C08004FF4006306E0202304E0202302E02023B1
:101C180000E02023114AD36082E000BF58640240EC
:101C2800106002401064024070600240706402401C
:101C380028600240286402408860024088640240AC
:101C48004060024040640240A0600240A06402403C
:101C580000640240B86002405860024000600240E0
:101C6800FB681B68964A934257D0FB681B68954AE5
:101C7800934250D0FB681B68934A934249D0FB6853
:101C88001B68924A934242D0FB681B68904A934271
:101C98003AD0FB681B688F4A934232D0FB681B68B6
:101CA8008D4A93422AD0FB681B688C4A934222D003
:101CB800FB681B688A4A93421AD0FB681B68894AEA
:101CC800934212D0FB681B68874A93420AD0FB688C
:101CD8001B68864A934202D14FF400131EE04FF06E
:101CE80000631BE04FF4001318E04FF4001315E0F5
:101CF8004FF4001312E04FF400630FE04FF4006359
:101D08000CE04FF4006309E04FF4006306E0202381
:101D180004E0202302E0202300E02023744A93609B
:101D2800FB681B681A46734B9A4260D9FB681B68AC
:101D3800634A934257D0FB681B68624A934250D06B
:101D4800FB681B68604A934249D0FB681B685F4A7E
:101D5800934242D0FB681B685D4A93423AD0FB68C5
:101D68001B685C4A934232D0FB681B685A4A93420C
:101D78002AD0FB681B68594A934222D0FB681B682B
:101D8800574A93421AD0FB681B68564A934212D0AE
:101D9800FB681B68544A93420AD0FB681B68534A85
:101DA800934202D14FF480131EE04FF080631BE092
:101DB8004FF4801318E04FF4801315E04FF48013AC
:101DC80012E04FF480630FE04FF480630CE04FF4AF
:101DD800806309E04FF4806306E0102304E01023D9
:101DE80002E0102300E01023434AD3604FE1FB6870
:101DF8001B681A46414B9A4240F28280FB681B6876
:101E08002F4A934257D0FB681B682E4A934250D002
:101E1800FB681B682C4A934249D0FB681B682B4A15
:101E2800934242D0FB681B68294A93423AD0FB6828
:101E38001B68284A934232D0FB681B68264A9342A3
:101E48002AD0FB681B68254A934222D0FB681B688E
:101E5800234A93421AD0FB681B68224A934212D045
:101E6800FB681B68204A93420AD0FB681B681F4A1C
:101E7800934202D14FF480131EE04FF080631BE0C1
:101E88004FF4801318E04FF4801315E04FF48013DB
:101E980012E04FF480630FE04FF480630CE04FF4DE
:101EA800806309E04FF4806306E0102304E0102308
:101EB80002E0102300E010230F4A9360E7E000BF20
:101EC800106002401064024070600240706402407A
:101ED800286002402864024088600240886402400A
:101EE8004060024040640240A0600240A06402409A
:101EF800006002405864024000640240B86002403A
:101F0800FB681B681A46964B9A4260D9FB681B68A7
:101F1800944A934257D0FB681B68934A934250D027
:101F2800FB681B68914A934249D0FB681B68904A3A
:101F3800934242D0FB681B688E4A93423AD0FB68B2
:101F48001B688D4A934232D0FB681B688B4A9342C8
:101F58002AD0FB681B688A4A934222D0FB681B6818
:101F6800884A93421AD0FB681B68874A934212D06A
:101F7800FB681B68854A93420AD0FB681B68844A41
:101F8800934202D14FF480131EE04FF080631BE0B0
:101F98004FF4801318E04FF4801315E04FF48013CA
:101FA80012E04FF480630FE04FF480630CE04FF4CD
:101FB800806309E04FF4806306E0102304E01023F7
:101FC80002E0102300E01023724AD3605FE0FB6850
:101FD8001B68644A934257D0FB681B68624A934265
:101FE80050D0FB681B68614A934249D0FB681B6864
:101FF8005F4A934242D0FB681B685E4A93423AD0DC
:10200800FB681B685C4A934232D0FB681B685B4ADA
:1020180093422AD0FB681B68594A934222D0FB6836
:102028001B68584A93421AD0FB681B68564A934269
:1020380012D0FB681B68554A93420AD0FB681B689C
:10204800534A934202D14FF480131EE04FF080634D
:102058001BE04FF4801318E04FF4801315E04FF4A1
:10206800801312E04FF480630FE04FF480630CE0BC
:102078004FF4806309E04FF4806306E0102304E026
:10208800102302E0102300E01023424A9360FB680B
:102098001B681A46404B9A4240F28280FB681B68D4
:1020A800304A934257D0FB681B682F4A934250D05E
:1020B800FB681B682D4A934249D0FB681B682C4A71
:1020C800934242D0FB681B682A4A93423AD0FB6885
:1020D8001B68294A934232D0FB681B68274A9342FF
:1020E8002AD0FB681B68264A934222D0FB681B68EB
:1020F800244A93421AD0FB681B68234A934212D0A1
:10210800FB681B68214A93420AD0FB681B68204A77
:10211800934202D14FF400231EE04FF000731BE0FE
:102128004FF4002318E04FF4002315E04FF4002388
:1021380012E04FF400730FE04FF400730CE04FF41B
:10214800007309E04FF4007306E0082304E0082355
:1021580002E0082300E00823104AD3606FE100BFC3
:1021680058600240106002401064024070600240F3
:10217800706402402860024028640240886002407F
:10218800886402404060024040640240A06002400F
:10219800A0640240006002405864024000640240AB
:1021A800FB681B681A46944B9A4260D9FB681B6807
:1021B800924A934257D0FB681B68914A934250D089
:1021C800FB681B688F4A934249D0FB681B688E4A9C
:1021D800934242D0FB681B688C4A93423AD0FB6812
:1021E8001B688B4A934232D0FB681B68894A93422A
:1021F8002AD0FB681B68884A934222D0FB681B6878
:10220800864A93421AD0FB681B68854A934212D0CB
:10221800FB681B68834A93420AD0FB681B68824AA2
:10222800934202D14FF400231EE04FF000731BE0ED
:102238004FF4002318E04FF4002315E04FF4002377
:1022480012E04FF400730FE04FF400730CE04FF40A
:10225800007309E04FF4007306E0082304E0082344
:1022680002E0082300E00823704A9360E7E0FB6877
:102278001B681A466E4B9A4260D9FB681B685F4A16
:10228800934257D0FB681B685D4A934250D0FB6865
:102298001B685C4A934249D0FB681B685A4A9342C0
:1022A80042D0FB681B68594A93423AD0FB681B68C6
:1022B800574A934232D0FB681B68564A93422AD049
:1022C800FB681B68544A934222D0FB681B68534A38
:1022D80093421AD0FB681B68514A934212D0FB689C
:1022E8001B68504A93420AD0FB681B684E4A9342C7
:1022F80002D14FF400231EE04FF000731BE04FF4AF
:10230800002318E04FF4002315E04FF4002312E0F7
:102318004FF400730FE04FF400730CE04FF40073B8
:1023280009E04FF4007306E0082304E0082302E004
:10233800082300E008233F4AD36080E0FB681B685D
:102348002E4A934278D0FB681B682D4A934250D09E
:10235800FB681B682B4A934249D0FB681B682A4AD2
:10236800934242D0FB681B68284A93423AD0FB68E4
:102378001B68274A934232D0FB681B68254A934260
:102388002AD0FB681B68244A934222D0FB681B684A
:10239800224A93421AD0FB681B68214A934212D002
:1023A800FB681B681F4A93420AD0FB681B681E4AD9
:1023B800934202D14FF400233FE04FF000733CE01A
:1023C8004FF4002339E04FF4002336E04FF40023A4
:1023D80033E04FF4007330E04FF400732DE04FF416
:1023E80000732AE04FF4007327E0082325E0082350
:1023F80023E0082321E000BFB860024010600240DB
:10240800106402407060024070640240286002401C
:1024180028640240886002408864024040600240AC
:1024280040640240A0600240A06402400064024090
:10243800586002400060024008239A4A9360FB6893
:102448001B681A46984B9A4260D9FB681B68974AE2
:10245800934257D0FB681B68954A934250D0FB685B
:102468001B68944A934249D0FB681B68924A93427E
:1024780042D0FB681B68914A93423AD0FB681B68BC
:102488008F4A934232D0FB681B688E4A93422AD007
:10249800FB681B688C4A934222D0FB681B688B4AF6
:1024A80093421AD0FB681B68894A934212D0FB6892
:1024B8001B68884A93420AD0FB681B68864A934285
:1024C80002D14FF480231EE04FF080731BE04FF4DD
:1024D800802318E04FF4802315E04FF4802312E0A6
:1024E8004FF480730FE04FF480730CE04FF4807367
:1024F80009E04FF4807306E0042304E0042302E0BB
:10250800042300E00423754AD36051E1FB681B688B
:102518001A46734B9A4260D9FB681B68634A934218
:1025280057D0FB681B68624A934250D0FB681B680F
:10253800604A934249D0FB681B685F4A934242D085
:10254800FB681B685D4A93423AD0FB681B685C4A8B
:10255800934232D0FB681B685A4A93422AD0FB68E0
:102568001B68594A934222D0FB681B68574A93421A
:102578001AD0FB681B68564A934212D0FB681B6846
:10258800544A93420AD0FB681B68534A934202D1CB
:102598004FF480231EE04FF080731BE04FF480233C
:1025A80018E04FF4802315E04FF4802312E04FF435
:1025B80080730FE04FF480730CE04FF4807309E0F0
:1025C8004FF4807306E0042304E0042302E00423AC
:1025D80000E00423414A9360EAE0FB681B681A465E
:1025E800404B9A4240F28480FB681B682F4A934212
:1025F8007AD0FB681B682E4A934250D0FB681B6850
:102608002C4A934249D0FB681B682B4A934242D01C
:10261800FB681B68294A93423AD0FB681B68284A22
:10262800934232D0FB681B68264A93422AD0FB6843
:102638001B68254A934222D0FB681B68234A9342B1
:102648001AD0FB681B68224A934212D0FB681B68A9
:10265800204A93420AD0FB681B681F4A934202D162
:102668004FF4802341E04FF080733EE04FF4802325
:102678003BE04FF4802338E04FF4802335E04FF4FB
:10268800807332E04FF480732FE04FF480732CE0B6
:102698004FF4807329E0042327E0042325E0042372
:1026A80023E000BF0060024058640240106002400E
:1026B800106402407060024070640240286002406A
:1026C80028640240886002408864024040600240FA
:1026D80040640240A0600240A064024000640240DE
:1026E800B8600240586002400423944AD3605FE017
:1026F800FB681B68924A934257D0FB681B68914A53
:10270800934250D0FB681B688F4A934249D0FB68BC
:102718001B688E4A934242D0FB681B688C4A9342DE
:102728003AD0FB681B688B4A934232D0FB681B681F
:10273800894A93422AD0FB681B68884A934222D070
:10274800FB681B68864A93421AD0FB681B68854A57
:10275800934212D0FB681B68834A93420AD0FB68F5
:102768001B68824A934202D14FF480231EE04FF047
:1027780080731BE04FF4802318E04FF4802315E0AA
:102788004FF4802312E04FF480730FE04FF480730E
:102798000CE04FF4807309E04FF4807306E00423E3
:1027A80004E0042302E0042300E00423634A936066
:1027B800FB681B681A466E4B9A425CD9FB681B681B
:1027C8005F4A934253D0FB681B685E4A93424CD0E1
:1027D800FB681B685C4A934245D0FB681B685B4AF0
:1027E80093423ED0FB681B68594A934237D0FB6836
:1027F8001B68584A934230D0FB681B68564A93427C
:1028080029D0FB681B68554A934222D0FB681B6895
:10281800534A93421AD0FB681B68524A934212D01B
:10282800FB681B68504A93420AD0FB681B684F4AF2
:10283800934202D14FF480331AE04FF4800317E03B
:102848004FF4803314E04FF4803311E04FF48033B9
:102858000EE040230CE040230AE0402308E0402338
:1028680006E0012304E0012302E0012300E0012344
:10287800404AD36041E1FB681B681A463E4B9A42C6
:102888007CD9FB681B682E4A934253D0FB681B68AF
:102898002C4A93424CD0FB681B682B4A934245D084
:1028A800FB681B68294A93423ED0FB681B68284A8C
:1028B800934237D0FB681B68264A934230D0FB68A6
:1028C8001B68254A934229D0FB681B68234A934218
:1028D80022D0FB681B68224A93421AD0FB681B6807
:1028E800204A934212D0FB681B681F4A93420AD0C1
:1028F800FB681B681D4A934202D14FF480331AE0EB
:102908004FF4800317E04FF4803314E04FF4803322
:1029180011E04FF480330EE040230CE040230AE03E
:10292800402308E0402306E0012304E0012302E0FD
:10293800012300E001230F4A9360DEE000600240BB
:1029480010600240106402407060024070640240EF
:10295800286002402864024088600240886402407F
:102968004060024040640240A0600240A06402400F
:102978005864024000640240B8600240FB681B686B
:102988001A46784B9A425CD9FB681B68764A934290
:1029980053D0FB681B68754A93424CD0FB681B6890
:1029A800734A934245D0FB681B68724A93423ED0F3
:1029B800FB681B68704A934237D0FB681B686F4AF4
:1029C800934230D0FB681B686D4A934229D0FB685C
:1029D8001B686C4A934222D0FB681B686A4A934280
:1029E8001AD0FB681B68694A934212D0FB681B68BF
:1029F800674A93420AD0FB681B68664A934202D131
:102A08004FF480331AE04FF4800317E04FF480331B
:102A180014E04FF4803311E04FF480330EE040238C
:102A28000CE040230AE0402308E0402306E00123AD
:102A380004E0012302E0012300E00123564AD360A9
:102A48005BE0FB681B68484A934253D0FB681B68ED
:102A5800464A93424CD0FB681B68454A934245D08E
:102A6800FB681B68434A93423ED0FB681B68424A96
:102A7800934237D0FB681B68404A934230D0FB68CA
:102A88001B683F4A934229D0FB681B683D4A934222
:102A980022D0FB681B683C4A93421AD0FB681B682B
:102AA8003A4A934212D0FB681B68394A93420AD0CB
:102AB800FB681B68374A934202D14FF480331AE00F
:102AC8004FF4800317E04FF4803314E04FF4803361
:102AD80011E04FF480330EE040230CE040230AE07D
:102AE800402308E0402306E0012304E0012302E03C
:102AF800012300E00123284A9360FB681B681A68D9
:102B0800FB681B6842F016021A60FB681B685A696A
:102B1800FB681B6842F080025A61FB681B6C002B43
:102B280003D1FB689B6C002B07D0FB681B681A68F5
:102B3800FB681B6842F008021A60FB681B681A6889
:102B4800FB681B6842F001021A6005E0FB6800227E
:102B580083F834200223FB75FB7D18461837BD46E1
:102B680080BD00BF586002401060024010640240FF
:102B7800706002407064024028600240286402408D
:102B8800886002408864024040600240406402401D
:102B9800A0600240A06402400060024080B485B09A
:102BA80000AFF860B9601346FB71FB79002B04D1C4
:102BB800FB681B68BA68DA6003E0FB681B68BA68E0
:102BC8001A61002318461437BD4680BC704780B48C
:102BD80085B000AFF860B9607A603B60FB681B683D
:102BE8003A685A60FB689B68402B08D1FB681B68F1
:102BF8007A689A60FB681B68BA68DA6007E0FB6865
:102C08001B68BA689A60FB681B687A68DA6000BF5C
:102C18001437BD4680BC704780B485B000AF78607B
:102C280039607B68002B02D03B68002B01D101235F
:102C380053E03B681A687B681A602A4B1A683B683D
:102C48001B68DB43274913400B60264B5A683B68D7
:102C58001B68DB43234913404B60224BFB603B68F6
:102C68005B68FA681344FB60FB6819683B681A687C
:102C7800FB680A431A601B4B9A683B681B68DB4376
:102C8800184913408B60174BDA683B681B68DB43B5
:102C980014491340CB603B689B68102B0ED1114B35
:102CA8009A683B681B680F4913438B600D4BDA68C1
:102CB8003B681B680B491343CB600DE0094BFB6075
:102CC8003B689B68FA681344FB60FB6819683B68BB
:102CD8001A68FB680A431A60002318461437BD4671
:102CE80080BC7047003C014080B483B000AF78607E
:102CF80039607B68002B02D03B68002B01D101238F
:102D08004BE07B681A683B681A60264B1A687B6838
:102D18001B681A407B681B689A4203D13B680022F3
:102D28005A600FE01F4B5A687B681B681A407B6823
:102D38001B689A4203D13B6804225A6002E03B6850
:102D48000B225A60174B9A687B681B681A407B688D
:102D58001B689A4210D1134BDA687B681B681A40CB
:102D68007B681B689A4203D13B6810229A6013E083
:102D78003B6808229A600FE00A4BDA687B681B6898
:102D88001A407B681B689A4203D13B680C229A6000
:102D980002E03B6800229A60002318460C37BD46C3
:102DA80080BC7047003C014080B483B000AF7860BD
:102DB8007B68002B01D1012320E0134B1A687B6844
:102DC8001B68DB43104913400B600F4B5A687B6844
:102DD8001B68DB430C4913404B600B4B9A687B68BC
:102DE8001B68DB43084913408B60074BDA687B6834
:102DF8001B68DB4304491340CB60002318460C379B
:102E0800BD4680BC704700BF003C014080B487B01D
:102E180000AFF8600B467A60FB720023FB75FB7A03
:102E2800002B03D1FB687A685A6002E00123FB7526
:102E380000BFFB7D18461C37BD4680BC704780B478
:102E480083B000AF786039607B68002B01D1012323
:102E580003E07B683A681A60002318460C37BD46C1
:102E680080BC704780B582B000AF7860094B5B6961
:102E7800002B0AD0074A7B681B6853617B685B6834
:102E8800002B02D07B685B68984700BF0837BD46B7
:102E980080BD00BF003C014080B487B000AF7860BF
:102EA80039600D4B7B617B691A687B681B6813402E
:102EB8007A681268FA60FA6892FAA2F2BA60BA6896
:102EC800B2FA82F2D2B2D3403B613B6918461C3752
:102ED800BD4680BC704700BF143C014080B483B03D
:102EE80000AF78603960044A7B681B68536100BF93
:102EF8000C37BD4680BC7047003C014080B483B0AD
:102F080000AF7860044A7B681B68136100BF0C3708
:102F1800BD4680BC704700BF003C014080B586B00C
:102F280000AFF860B960C7E900230123FB75234BA4
:102F38001B7E012B01D102233BE0204B01221A7694
:102F48004CF2503000F0BAF90346FB75FB7D002BBC
:102F58002BD1FB68002B05D13B781946B86800F0E7
:102F68005FFA16E0FB68012B05D13B881946B86863
:102F780000F034FA0DE0FB68022B05D13B681946D6
:102F8800B86800F009FA04E0D7E90023B86800F04F
:102F9800D5F94CF2503000F091F90346FB75084B17
:102FA8001B69074A23F001031361044B00221A76B8
:102FB800FB7D18461837BD4680BD00BF640400205D
:102FC800003C024080B586B000AFF860B960C7E940
:102FD80000230023FB75204B1B7E012B01D102230C
:102FE80035E01D4B01221A761C4B1B691B4A43F026
:102FF80080731361194B1B69184A43F000731361FE
:10300800154B03221A70144ABB685361FB68002BE6
:1030180005D13B781946B86800F002FA16E0FB685B
:10302800012B05D13B881946B86800F0D7F90DE0A7
:10303800FB68022B05D13B681946B86800F0ACF96B
:1030480004E0D7E90023B86800F078F9FB7D18465A
:103058001837BD4680BD00BF64040020003C024014
:1030680080B582B000AF00237B604B4BDB6803F078
:10307800F203002B20D0494B1B78DBB2012B07D180
:10308800464BDB687B60454B4FF0FF32DA600BE064
:10309800424B1B78DBB2022B03D1404B1B697B6090
:1030A80002E03E4B5B697B6000F0DAF9786800F07B
:1030B80080F83A4B00221A70374BDB6803F00103A3
:1030C800002B4AD0344B0122DA60344B1B78DBB238
:1030D800012B2DD1314B5B68013B304A53602F4B9C
:1030E8005B68002B15D02D4BDB687B60786800F09F
:1030F80057F82A4BDB680133284AD360274BDB6833
:103108007B60264B1B7ADBB21946786800F078FBA7
:1031180023E04FF0FF337B60204A7B68D3601F4B6E
:1031280000221A7000F0A6FC786800F039F814E064
:103138001A4B1B78DBB2022B07D100F09BFC174B14
:103148001B69184600F02CF804E0144B5B6918461C
:1031580000F026F8114B00221A70104B1B78DBB2D6
:10316800002B14D10C4B1B690B4A23F0FF0313618E
:10317800094B1B69084A23F080731361064B1B69CE
:10318800054A23F000731361044B00221A7600BF2E
:103198000837BD4680BD00BF003C024064040020E3
:1031A80080B483B000AF786000BF0C37BD4680BCE8
:1031B800704780B483B000AF786000BF0C37BD465D
:1031C80080BC704780B483B000AF0023FB710B4B09
:1031D8001B69002B0BDA094B094A5A60074B094A4D
:1031E8005A60064B1B69002B01DA0123FB71FB793E
:1031F80018460C37BD4680BC704700BF003C0240F3
:1032080023016745AB89EFCD80B400AF054B1B693F
:10321800044A43F00043136100231846BD4680BCAE
:10322800704700BF003C024080B400AF094B5B69A7
:1032380003F00103002B07D0064B074A9A60054BA1
:10324800064A9A60002300E001231846BD4680BC68
:10325800704700BF003C02403B2A19087F6E5D4C56
:1032680080B400AF054B5B69044A43F00103536126
:1032780000231846BD4680BC704700BF003C024092
:1032880080B500AF074B1B78DBB2064A43F0020358
:10329800DBB213704CF2503000F010F803461846B9
:1032A80080BD00BF143C024080B400AF024BDB6914
:1032B8001846BD4680BC70476404002080B584B0C1
:1032C80000AF78600023FB601A4B0022DA61FDF73B
:1032D80039F8F86010E07B68B3F1FF3F0CD07B68E9
:1032E800002B07D0FDF72EF80246FB68D31A7A6840
:1032F8009A4201D2032319E00F4BDB6803F48033B1
:10330800002BE8D10C4BDB6803F00103002B02D043
:10331800094B0122DA60084BDB6803F0F203002B4B
:1033280003D000F09DF8012300E000231846103771
:10333800BD4680BD64040020003C024090B484B0C7
:1033480000AFF860C7E90023124B1B69114A23F448
:10335800407313610F4B1B690E4A43F440731361AA
:103368000C4B1B690B4A43F001031361FB683A6875
:103378001A60D7E900124FF000034FF00004130061
:103388000024FA680432136000BF1037BD4690BCB1
:10339800704700BF003C024080B483B000AF786043
:1033A80039600D4B1B690C4A23F4407313610A4BB7
:1033B8001B69094A43F400731361074B1B69064AEA
:1033C80043F0010313617B683A681A6000BF0C3749
:1033D800BD4680BC704700BF003C024080B483B04B
:1033E80000AF78600B467B800C4B1B690B4A23F4BB
:1033F80040731361094B1B69084A43F480731361D6
:10340800064B1B69054A43F0010313617B687A8800
:103418001A8000BF0C37BD4680BC7047003C024094
:1034280080B483B000AF78600B46FB700B4B1B6910
:103438000A4A23F440731361084B084A1B69136155
:10344800064B1B69054A43F0010313617B68FA7850
:103458001A7000BF0C37BD4680BC7047003C024064
:1034680080B400AF274BDB6803F01003002B08D0B3
:10347800254BDB6943F01003234AD361214B10220B
:10348800DA60204BDB6803F02003002B08D01E4BCA
:10349800DB6943F008031C4AD3611A4B2022DA6027
:1034A800184BDB6803F04003002B08D0164BDB6990
:1034B80043F00403144AD361124B4022DA60114BE3
:1034C800DB6803F08003002B08D00F4BDB6943F067
:1034D80002030D4AD3610B4B8022DA60094BDB688B
:1034E80003F00203002B08D0074BDB6943F02003ED
:1034F800054AD361034B0222DA6000BFBD4680BC97
:10350800704700BF003C02406404002080B584B0CE
:1035180000AF786039600123FB730023BB60314B37
:103528001B7E012B01D1022358E02E4B01221A7673
:103538004CF25030FFF7C2FE0346FB73FB7B002BB7
:1035480048D13B684FF0FF321A607B681B68012B3B
:1035580015D17B681B69DAB27B685B68194610462F
:1035680000F02BF94CF25030FFF7A8FE0346FB732E
:103578001D4B1B691C4A23F00403136128E07B6878
:103588009B68BB601CE07B681B69DBB21946B868A6
:1035980000F036F94CF25030FFF790FE0346FB730B
:1035A800114B1B69104A23F0FA031361FB7B002BB4
:1035B80003D03B68BA681A600AE0BB680133BB6095
:1035C8007B68DA687B689B681344BA689A42DAD3E6
:1035D80000F050FA034B00221A76FB7B184610378E
:1035E800BD4680BD64040020003C024080B584B024
:1035F80000AF78600023FB73254B1B7E012B01D1A4
:10360800022340E0224B01221A76224B1B69214AF1
:1036180043F0807313611F4B1B691E4A43F000730C
:1036280013611C4BF322DA607B681B68012B10D1F5
:10363800174B02221A707B685B68154A13617B6816
:103648001B69DAB27B685B681946104600F0B5F86A
:1036580018E00F4B01221A707B68DB680C4A536034
:103668007B689B680A4AD3607B681B69DAB2084B9F
:103678001A727B689A687B681B69DBB21946104628
:1036880000F0BEF8FB7B18461037BD4680BD00BF72
:1036980064040020003C024080B584B000AF78602C
:1036A8000123FB73324B1B7E012B01D102235BE00C
:1036B8002F4B01221A767B681B6803F00103002B4D
:1036C80018D07B685B68012B0AD17B689A687B6895
:1036D800DB681946104600F0DBF80346FB7309E087
:1036E8007B689A687B68DB681946104600F0F2F838
:1036F8000346FB737B681B6803F00203002B07D0AB
:103708007B681B69DBB2184600F004F90346FB73BB
:103718007B681B6803F00403002B13D07B681B7EB7
:1037280003F02003D8B27B681B7E03F04003D9B2B4
:103738007B681B7E23F07F03DBB21A4600F004F996
:103748000346FB737B681B6803F00803002B07D054
:103758007B685B69DBB2184600F026F90346FB7309
:10376800034B00221A76FB7B18461037BD4680BDF6
:103778006404002080B582B000AF78607B680F22B7
:103788001A6000F03DF903461A467B689A6000F01B
:1037980043F903461A467B681A6100F023F9034689
:1037A8001A467B681A7600F057F903461A467B6872
:1037B8005A6100BF0837BD4680BD80B483B000AFF2
:1037C80003463960FB710D4B1B690C4A23F44073A7
:1037D80013610A4B1B69094A43F004031361074B41
:1037E8001A69FB791B021343044A43F480331361BB
:1037F80000BF0C37BD4680BC704700BF003C02408C
:1038080080B485B000AF78600B46FB700023FB6086
:10381800FB78002B02D10023FB6010E0FB78012B22
:1038280003D14FF48073FB6009E0FB78022B03D1CE
:103838004FF40073FB6002E04FF44073FB60134BDE
:103848001B69124A23F440731361104B1A690F491C
:10385800FB6813430B610D4B1B690C4A23F0F803FB
:1038680013610A4B1A697B68DB001343074A43F06C
:1038780002031361054B1B69044A43F48033136147
:1038880000BF1437BD4680BC704700BF003C0240F3
:1038980080B584B000AF786039600023FB734CF2C8
:1038A8005030FFF70BFD0346FB73FB7B002B0AD15F
:1038B800074B1B889AB27B689BB2DB439BB20449D7
:1038C80013409BB20B80FB7B18461037BD4680BD6A
:1038D800163C024080B584B000AF786039600023A0
:1038E800FB734CF25030FFF7E9FC0346FB73FB7B9C
:1038F800002B08D1064B1B889AB27B689BB20449FF
:1039080013439BB20B80FB7B18461037BD4680BD26
:10391800163C024080B584B000AF0346FB7100231B
:10392800FB734CF25030FFF7C9FC0346FB73FB7B7B
:10393800002B02D1034AFB791370FB7B1846103722
:10394800BD4680BD153C024080B584B000AF03463B
:10395800FB710B46BB7113467B71FF23FB7300237E
:10396800BB734CF25030FFF7A9FC0346BB73BB7B1B
:10397800002B11D10B4B1B78DBB203F01F03FB7339
:10398800BA79FB7B1343DAB27B791343DAB2054980
:10399800FB791343DBB20B70BB7B18461037BD466F
:1039A80080BD00BF143C024080B483B000AF034622
:1039B800FB710B4B1B78DBB2094A23F00C03DBB21B
:1039C8001370074B1B78DAB20549FB791343DBB256
:1039D8000B70002318460C37BD4680BC704700BFEB
:1039E800143C024080B400AF044B5B69DBB223F0A7
:1039F8001F03DBB21846BD4680BC7047003C02403E
:103A080080B400AF034B1B889BB21846BD4680BCF0
:103A1800704700BF163C024080B483B000AFAA23B1
:103A2800FB710C4B1B78DBB2CC2B02D1CC23FB7186
:103A380009E0084B1B78DBB2AA2B02D1AA23FB7141
:103A480001E05523FB71FB7918460C37BD4680BC55
:103A5800704700BF153C024080B400AF044B1B7890
:103A6800DBB203F00C03DBB21846BD4680BC7047DE
:103A7800143C024080B400AF1F4B1B6803F4007372
:103A8800002B17D01C4B1B681B4A23F400731360D0
:103A9800194B1B68184A43F400631360164B1B68E4
:103AA800154A23F400631360134B1B68124A43F44E
:103AB80000731360104B1B6803F48063002B17D04E
:103AC8000D4B1B680C4A23F4806313600A4B1B6878
:103AD800094A43F480531360074B1B68064A23F4D2
:103AE80080531360044B1B68034A43F480631360DC
:103AF80000BFBD4680BC7047003C024080B489B01E
:103B080000AF7860396000237B6100233B610023AC
:103B1800BB610023FB616BE10122FB6902FA03F33D
:103B28007B613B681B687A6913403B613A697B6932
:103B38009A4240F05A813B685B68022B03D03B688D
:103B48005B68122B23D1FB69DA087B68083253F8CB
:103B58002230BB61FB6903F007039B000F2202FAC6
:103B680003F3DB43BA691340BB613B681A69FB691D
:103B780003F007039B0002FA03F3BA691343BB611E
:103B8800FB69DA087B680832B96943F822107B6858
:103B98001B68BB61FB695B00032202FA03F3DB438A
:103BA800BA691340BB613B685B6803F00302FB69B9
:103BB8005B0002FA03F3BA691343BB617B68BA6915
:103BC8001A603B685B68012B0BD03B685B68022B73
:103BD80007D03B685B68112B03D03B685B68122BEE
:103BE80030D17B689B68BB61FB695B00032202FAEA
:103BF80003F3DB43BA691340BB613B68DA68FB69CE
:103C08005B0002FA03F3BA691343BB617B68BA69C4
:103C18009A607B685B68BB610122FB6902FA03F367
:103C2800DB43BA691340BB613B685B681B0903F05F
:103C38000102FB6902FA03F3BA691343BB617B68AB
:103C4800BA695A607B68DB68BB61FB695B00032269
:103C580002FA03F3DB43BA691340BB613B689A6815
:103C6800FB695B0002FA03F3BA691343BB617B6823
:103C7800BA69DA603B685B6803F08053002B00F098
:103C8800B4800023FB605F4B5B6C5E4A43F4804367
:103C980053645C4B5B6C03F48043FB60FB685A4ADB
:103CA800FB699B08023352F82330BB61FB6903F0C0
:103CB80003039B000F2202FA03F3DB43BA691340A4
:103CC800BB617B68514A93422BD07B68504A934230
:103CD80025D07B684F4A93421FD07B684E4A934257
:103CE80019D07B684D4A934213D07B684C4A934263
:103CF8000DD07B684B4A934207D07B684A4A93426F
:103D080001D107230EE008230CE006230AE005236F
:103D180008E0042306E0032304E0022302E0012371
:103D280000E00023FA6902F0030292009340BA69A6
:103D38001343BB613449FB699B080233BA6941F8F4
:103D480023203A4B1B68BB613B69DB43BA691340CC
:103D5800BB613B685B6803F48033002B03D0BA690E
:103D68003B691343BB61314ABB6913602F4B5B68E6
:103D7800BB613B69DB43BA691340BB613B685B6865
:103D880003F40033002B03D0BA693B691343BB61CA
:103D9800264ABB695360254B9B68BB613B69DB4383
:103DA800BA691340BB613B685B6803F48013002B5E
:103DB80003D0BA693B691343BB611C4ABB69936072
:103DC8001A4BDB68BB613B69DB43BA691340BB61D3
:103DD8003B685B6803F40013002B03D0BA693B69A6
:103DE8001343BB61114ABB69D360FB690133FB61B3
:103DF800FB690F2B7FF690AE00BF2437BD4680BC11
:103E0800704700BF003802400038014000000240FF
:103E18000004024000080240000C0240001002406A
:103E28000014024000180240001C0240003C0140FF
:103E380080B487B000AF7860396000233B6100230D
:103E4800FB600023BB6000237B61CDE001227B691E
:103E580002FA03F33B613A683B691340FB60FA6876
:103E68003B699A4240F0BD80644A7B699B080233F3
:103E780052F82330BB607B6903F003039B000F22D9
:103E880002FA03F3BA681340BB607B685C4A93424A
:103E98002BD07B685B4A934225D07B685A4A934271
:103EA8001FD07B68594A934219D07B68584A93427D
:103EB80013D07B68574A93420DD07B68564A934289
:103EC80007D07B68554A934201D107230EE00823A7
:103ED8000CE006230AE0052308E0042306E0032398
:103EE80004E0022302E0012300E000237A6902F0E3
:103EF800030292009340BA689A4232D17B6903F078
:103F080003039B000F2202FA03F3BB603B4A7B6961
:103F18009B08023352F82310BB68DA4337487B69A1
:103F28009B080A40023340F823203D4B1A68FB687F
:103F3800DB433B4913400B60394B5A68FB68DB4352
:103F4800374913404B60364B9A68FB68DB4334496A
:103F580013408B60324BDA68FB68DB43304913400F
:103F6800CB607B681A687B695B00032101FA03F365
:103F7800DB431A407B681A607B69DA087B68083281
:103F880053F822107B6903F007039B000F2202FA03
:103F980003F3DB437A69D20819407B68083243F897
:103FA80022107B689A687B695B00032101FA03F39E
:103FB800DB431A407B689A607B685A6801217B69F9
:103FC80001FA03F3DB431A407B685A607B68DA68BE
:103FD8007B695B00032101FA03F3DB431A407B682A
:103FE800DA607B6901337B617B690F2B7FF62EAF2B
:103FF80000BF1C37BD4680BC704700BF0038014079
:10400800000002400004024000080240000C024088
:10401800001002400014024000180240001C024038
:10402800003C014080B485B000AF78600B467B80CF
:104038007B681A697B881340002B02D00123FB732D
:1040480001E00023FB73FB7B18461437BD4680BC98
:10405800704780B483B000AF78600B467B8013460E
:104068007B707B78002B03D07A887B689A6103E0A9
:104078007B881A047B689A6100BF0C37BD4680BCF8
:10408800704780B483B000AF78600B467B807B6854
:104098005A697B881A407B889A4204D17B881A0423
:1040A8007B689A6102E07A887B689A6100BF0C3766
:1040B800BD4680BC704780B485B000AF78600B46C1
:1040C8007B804FF48033FB607A88FB681343FB6086
:1040D800FA687B68DA617A887B68DA61FA687B68F3
:1040E800DA617B68DB69FB607B68DB6903F480333A
:1040F800002B01D0002300E0012318461437BD46E9
:1041080080BC704780B582B000AF0346FB80084B87
:104118005A69FB881340002B06D0054AFB88536177
:10412800FB88184600F006F800BF0837BD4680BD7A
:10413800003C014080B483B000AF0346FB8000BF61
:104148000C37BD4680BC704780B400AF074B1B6A74
:10415800064A43F080531362044B1B6A034A23F058
:104168008053136200BFBD4680BC704700380240D0
:1041780080B400AF034B01221A6000BFBD4680BC6B
:10418800704700BF20000E4280B400AF034B0022EE
:104198001A6000BFBD4680BC704700BF20000E42B9
:1041A80080B483B000AF78602A4B1B6823F0E0022C
:1041B8007B681B68274913430B60274B5B68264ABB
:1041C80023F480335360244B1B68234A23F4803341
:1041D8001360214B9B68204A23F4803393601E4B65
:1041E800DB681D4A23F48033D3607B685B6803F483
:1041F8008033002B05D0184B1B68174A43F48033D3
:1042080013607B685B6803F40033002B05D0124B06
:104218005B68114A43F4803353607B685B6803F042
:104228000103002B05D00C4B9B680B4A43F48033E9
:1042380093607B685B6803F00203002B05D0064B94
:10424800DB68054A43F48033D36000BF0C37BD46B2
:1042580080BC704700700040003C014080B400AF53
:10426800034B01221A6000BFBD4680BC704700BFE7
:1042780010000E4280B400AF034B00221A6000BF4A
:10428800BD4680BC704700BF10000E4280B483B0AA
:1042980000AF7860054B5A6804497B6813434B604C
:1042A80000BF0C37BD4680BC704700BF007000409F
:1042B80080B483B000AF7860054B5A687B68DB43F5
:1042C800034913404B6000BF0C37BD4680BC7047A4
:1042D8000070004080B483B000AF78600B46FB707C
:1042E800094B1B69084A23F004031361FB78012B6F
:1042F80001D130BF02E040BF20BF20BF00BF0C3754
:10430800BD4680BC704700BF00ED00E080B483B0BC
:1043180000AF78600B46FB70104B1B6823F003025C
:104328000E497B6813430B600D4B1B690C4A43F025
:1043380004031361FB78012B01D130BF02E040BFB9
:1043480020BF20BF064B1B69054A23F004031361F5
:1043580000BF0C37BD4680BC704700BF00700040EE
:1043680000ED00E080B400AF084B1B68074A43F03B
:1043780002031360064B1B69054A43F004031361EB
:1043880030BF00BFBD4680BC704700BF0070004012
:1043980000ED00E080B500AF064B5B6903F48033A5
:1043A800002B05D000F008F8024B4FF480325A6118
:1043B80000BF80BD003C014080B400AF00BFBD46D7
:1043C80080BC704780B400AF044B1B69034A43F0BC
:1043D8000203136100BFBD4680BC704700ED00E0DA
:1043E80080B400AF044B1B69034A23F00203136136
:1043F80000BFBD4680BC704700ED00E080B400AF50
:10440800044B1B69034A43F01003136100BFBD4608
:1044180080BC704700ED00E080B400AF044B1B691E
:10442800034A23F01003136100BFBD4680BC7047E8
:1044380000ED00E080B582B000AF00237B600E4B3A
:1044480001221A60FBF77EFF786009E0FBF77AFF2C
:1044580002467B68D31AB3F57A7F01D9032306E0B5
:10446800064B5B6803F00803082BEFD100231846BE
:104478000837BD4680BD00BFA4000E420070004052
:1044880080B582B000AF00237B600E4B00221A601B
:10449800FBF758FF786009E0FBF754FF02467B689A
:1044A800D31AB3F57A7F01D9032306E0064B5B687C
:1044B80003F00803082BEFD0002318460837BD4641
:1044C80080BD00BFA4000E420070004080B400AF61
:1044D800034B01221A6000BFBD4680BC704700BF75
:1044E80024000E4280B400AF034B00221A6000BFC4
:1044F800BD4680BC704700BF24000E4280B400AFA8
:10450800034B1B6803F480431846BD4680BC7047C4
:104518000070004080B586B000AF786000237B61F2
:1045280000233B611A4B1B6C194A43F080531364F8
:10453800174B1B6C03F080533B613B690023FB6006
:10454800144B1B6823F4804212497B6813430B60A9
:10455800104B1B6803F48043FB60FB68FBF7F2FE1B
:10456800786109E0FBF7EEFE02467B69D31AB3F5E2
:104578007A7F01D9032307E0064B5B6803F4804385
:10458800B3F5804FEED1002318461837BD4680BDDD
:10459800003802400070004080B400AF0023184685
:1045A800BD4680BC704780B586B000AF78607B6838
:1045B800002B01D101232CE27B681B6803F0010367
:1045C800002B75D0A24B9B6803F00C03042B0CD076
:1045D8009F4B9B6803F00C03082B12D19C4B5B6824
:1045E80003F48003B3F5800F0BD1994B1B6803F4D8
:1045F8000033002B5BD07B685B68002B57D101230D
:1046080007E27B685B68B3F5803F06D1904B1B6877
:104618008F4A43F4803313601DE07B685B68B3F511
:10462800A02F0CD18A4B1B68894A43F4802313605E
:10463800874B1B68864A43F4803313600BE0844B36
:104648001B68834A23F480331360814B1B68804ABC
:1046580023F4802313607B685B68002B13D0FBF77F
:1046680071FE386108E0FBF76DFE02463B69D31A1C
:10467800642B01D90323CCE1754B1B6803F4003389
:10468800002BF0D014E0FBF75DFE386108E0FBF783
:1046980059FE02463B69D31A642B01D90323B8E1BA
:1046A8006B4B1B6803F40033002BF0D100E000BF14
:1046B8007B681B6803F00203002B63D0644B9B6884
:1046C80003F00C03002B0BD0614B9B6803F00C0329
:1046D800082B1CD15E4B5B6803F48003002B16D1BA
:1046E8005B4B1B6803F00203002B05D07B68DB687B
:1046F800012B01D001238CE1554B1B6823F0F802F4
:104708007B681B69DB00524913430B603AE07B6806
:10471800DB68002B20D04F4B01221A60FBF712FEFA
:10472800386108E0FBF70EFE02463B69D31A022BFC
:1047380001D903236DE1464B1B6803F00203002BEC
:10474800F0D0434B1B6823F0F8027B681B69DB0041
:104758003F4913430B6015E03E4B00221A60FBF7FC
:10476800F1FD386108E0FBF7EDFD02463B69D31A1D
:10477800022B01D903234CE1354B1B6803F00203DC
:10478800002BF0D17B681B6803F00803002B30D0A6
:104798007B685B69002B16D02F4B01221A60FBF750
:1047A800D1FD386108E0FBF7CDFD02463B69D31A1D
:1047B800022B01D903232CE1254B5B6F03F0020385
:1047C800002BF0D015E0244B00221A60FBF7BAFD4D
:1047D800386108E0FBF7B6FD02463B69D31A022BA5
:1047E80001D9032315E11A4B5B6F03F00203002B79
:1047F800F0D17B681B6803F00403002B00F09F8056
:104808000023FB75124B1B6C03F08053002B0FD158
:104818000023FB600E4B1B6C0D4A43F0805313645E
:104828000B4B1B6C03F08053FB60FB680123FB758B
:104838000A4B1B6803F48073002B20D1074B1B68BD
:10484800064A43F480731360FBF77CFD386110E07F
:104858000038024000004742800E47420070004086
:10486800FBF770FD02463B69D31A022B01D90323DB
:10487800CFE06A4B1B6803F48073002BF0D07B6891
:104888009B68012B06D1664B1B6F654A43F00103F9
:1048980013671CE07B689B68052B0CD1604B1B6F72
:1048A8005F4A43F0040313675D4B1B6F5C4A43F098
:1048B800010313670BE05A4B1B6F594A23F001039E
:1048C8001367574B1B6F564A23F0040313677B6823
:1048D8009B68002B15D0FBF735FD38610AE0FBF724
:1048E80031FD02463B69D31A41F28832934201D91D
:1048F80003238EE04A4B1B6F03F00203002BEED01C
:1049080014E0FBF71FFD38610AE0FBF71BFD0246C8
:104918003B69D31A41F28832934201D9032378E0E4
:104928003F4B1B6F03F00203002BEED1FB7D012BE5
:1049380005D13B4B1B6C3A4A23F0805313647B68C8
:104948009B69002B64D0364B9B6803F00C03082B43
:104958005CD07B689B69022B41D1324B00221A60E4
:10496800FBF7F0FC386108E0FBF7ECFC02463B691A
:10497800D31A022B01D903234BE0294B1B6803F000
:104988000073002BF0D17B68DA697B681B6A1A43D5
:104998007B685B6A9B011A437B689B6A5B08013BE7
:1049A8001B041A437B68DB6A1B061D4913434B60D3
:1049B8001C4B01221A60FBF7C5FC386108E0FBF7C5
:1049C800C1FC02463B69D31A022B01D9032320E01C
:1049D800134B1B6803F00073002BF0D018E0114B49
:1049E80000221A60FBF7AEFC386108E0FBF7AAFC6E
:1049F80002463B69D31A022B01D9032309E0084B6D
:104A08001B6803F00073002BF0D101E0012300E0E4
:104A1800002318461837BD4680BD00BF007000400F
:104A2800003802406000474280B584B000AF78602B
:104A380039607B68002B01D10123CAE0674B1B68F2
:104A480003F00F033A689A420CD9644B3A68D2B221
:104A58001A70624B1B6803F00F033A689A4201D040
:104A68000123B6E07B681B6803F00203002B20D00B
:104A78007B681B6803F00403002B05D0584B9B6828
:104A8800574A43F4E05393607B681B6803F00803BC
:104A9800002B05D0524B9B68514A43F46043936006
:104AA8004F4B9B6823F0F0027B689B684C4913438B
:104AB8008B607B681B6803F00103002B44D07B6884
:104AC8005B68012B07D1464B1B6803F40033002BAE
:104AD80019D101237DE07B685B68022B03D07B68DA
:104AE8005B68032B07D13E4B1B6803F00073002B58
:104AF80009D101236DE03A4B1B6803F00203002B38
:104B080001D1012365E0364B9B6823F003027B68E3
:104B18005B68334913438B60FBF714FCF8600AE0C9
:104B2800FBF710FC0246FB68D31A41F28832934225
:104B380001D903234DE02A4B9B6803F00C027B68E4
:104B48005B689B009A42EBD1244B1B6803F00F0370
:104B58003A689A420CD2214B3A68D2B21A701F4B6B
:104B68001B6803F00F033A689A4201D0012330E032
:104B78007B681B6803F00403002B08D0184B9B6864
:104B880023F4E0527B68DB68154913438B607B682C
:104B98001B6803F00803002B09D0114B9B6823F412
:104BA80060427B681B69DB000D4913438B6000F092
:104BB8009DF801460A4B9B681B0903F00F03094A3D
:104BC800D35C21FA03F3084A13600020FBF778FB53
:104BD800002318461037BD4680BD00BF003C024088
:104BE80000380240F06000080C00002080B58CB04E
:104BF80000AFF860B9607A60FB68002B29D1002308
:104C0800BB612B4B1B6B2A4A43F001031363284BF0
:104C18001B6B03F00103BB61BB694FF48073FB613D
:104C280002233B620323BB6200237B620023FB62F7
:104C380007F11C0319461F48FEF760FF1C4B9B68D1
:104C480023F0EC62B9687B680B43194913438B6006
:104C580029E000237B61164B1B6B154A43F00403C4
:104C68001363134B1B6B03F004037B617B694FF4E5
:104C78000073FB6102233B620323BB6200237B6258
:104C88000023FB6207F11C0319460B48FEF736FFA9
:104C9800074B9B6823F078427B68D900BB680B43BD
:104CA800034913438B6000BF3037BD4680BD00BF4A
:104CB80000380240000002400008024080B400AF03
:104CC800034B01221A6000BFBD4680BC704700BF7D
:104CD8004C00474280B400AF034B00221A6000BF6B
:104CE800BD4680BC704700BF4C0047422DE9F043E9
:104CF80085B000AF00237B600023FB6000233B608E
:104D08000023BB60644B9B6803F00C03042B07D0A3
:104D1800082B08D0002B40F0B680604BBB60B5E094
:104D28005F4BBB60B2E05C4B5B6803F03F037B60AA
:104D3800594B5B6803F48003002B4CD0564B5B68DF
:104D48009B094FF0000440F2FF114FF0000203EA04
:104D5800010804EA020941464A464FF000034FF0B1
:104D68000004540144EAD1644B0119462246B1EBD0
:104D7800080162EB09024FF000034FF000049401B0
:104D880044EA91648B015B1A64EB02044FF0000162
:104D98004FF00002E20042EA5372D9000B46144673
:104DA80013EB080344EB09044FF000014FF0000235
:104DB800620242EAD35259020B461446184621466B
:104DC8007B684FF000041A46234600F071FE034644
:104DD8000C46FB6049E0304B5B689B094FF00004D0
:104DE80040F2FF114FF0000203EA010504EA02064F
:104DF800294632464FF000034FF00004540144EABC
:104E0800D1644B0119462246491B62EB06024FF05A
:104E180000034FF00004940144EA91648B015B1A8B
:104E280064EB02044FF000014FF00002E20042EA96
:104E38005372D9000B4614465B1946EB04044FF035
:104E480000014FF00002A20242EA935299020B4677
:104E58001446184621467B684FF000041A4623463C
:104E680000F026FE03460C46FB600B4B5B681B0CF0
:104E780003F0030301335B003B60FA683B68B2FB55
:104E8800F3F3BB6002E0054BBB6000BFBB6818468C
:104E98001437BD46BDE8F083003802400024F40012
:104EA80000127A0080B400AF024B1B681846BD465A
:104EB80080BC70470C00002080B500AFFFF7F2FF00
:104EC8000146054B9B689B0A03F00703034AD35C22
:104ED80021FA03F3184680BD00380240006100083B
:104EE80080B500AFFFF7DEFF0146054B9B685B0B03
:104EF80003F00703034AD35C21FA03F3184680BD85
:104F0800003802400061000880B483B000AF7860C8
:104F18007B680F221A60454B1B6803F48023B3F5A6
:104F2800802F04D17B684FF4A0225A600EE03F4BDB
:104F38001B6803F48033B3F5803F04D17B684FF4DA
:104F480080325A6002E07B6800225A60374B1B6847
:104F580003F00103012B03D17B680122DA6002E030
:104F68007B680022DA60314B1B68DB0803F01F0204
:104F78007B681A612D4B1B6F03F00403042B03D1CC
:104F88007B6805229A600CE0284B1B6F03F0010335
:104F9800012B03D17B6801229A6002E07B68002222
:104FA8009A60224B5B6F03F00103012B03D17B68EE
:104FB80001225A6102E07B6800225A611B4B1B6880
:104FC80003F08073B3F1807F03D17B6802229A617A
:104FD80002E07B6801229A61144B5B6803F480024B
:104FE8007B68DA61114B5B6803F03F027B681A62E9
:104FF8000E4B5B689B09C3F308027B685A620B4B34
:105008005B6803F4403303F580335B001A0C7B685C
:105018009A62064B5B681B0E03F00F027B68DA622C
:1050280000BF0C37BD4680BC704700BF0038024047
:1050380080B483B000AF786039607B680F221A6053
:10504800114B9B6803F003027B685A600E4B9B6808
:1050580003F0F0027B689A600B4B9B6803F4E05204
:105068007B68DA60084B9B68DB0803F4E0527B68D6
:105078001A61064B1B6803F00F023B681A6000BFF9
:105088000C37BD4680BC704700380240003C0240E7
:1050980080B500AF064BDB6803F08003802B04D19A
:1050A80000F00AF8034B80221A7000BF80BD00BFD1
:1050B800003802400E38024080B400AF00BFBD4641
:1050C80080BC704780B586B000AF786000237B61F4
:1050D80000233B617B681B6803F00103002B05D1AB
:1050E8007B681B6803F00403002B35D0624B002259
:1050F8001A60FBF727F9786108E0FBF723F9024605
:105108007B69D31A022B01D90323B0E05B4B1B68E0
:1051180003F00063002BF0D17B685B689A017B6821
:105128009B681B0755491343C1F88430524B012231
:105138001A60FBF707F9786108E0FBF703F9024604
:105148007B69D31A022B01D9032390E04B4B1B68D0
:1051580003F00063002BF0D07B681B6803F00203A8
:10516800002B00F083800023FB60444B1B6C434AF8
:1051780043F080531364414B1B6C03F08053FB6076
:10518800FB683F4B1B683E4A43F480731360FBF790
:10519800D9F8786108E0FBF7D5F802467B69D31A9D
:1051A800022B01D9032362E0354B1B6803F480739B
:1051B800002BF0D0314B1B6F03F440733B613B690C
:1051C800002B2FD07B68DB6803F440733A699A425E
:1051D80028D02A4B1B6F23F440733B61294B0122D3
:1051E8001A60284B00221A60244A3B691367234B34
:1051F8001B6F03F00103012B14D1FBF7A3F87861AF
:105208000AE0FBF79FF802467B69D31A41F288321D
:10521800934201D903232AE0184B1B6F03F00203C2
:10522800002BEED07B68DB6803F44073B3F5407F56
:105238000DD1124B9B6823F4F8127B68DB6823F0CE
:10524800704323F440730D4913438B6005E00B4B07
:105258009B680A4A23F4F8139360084B1A6F7B681B
:10526800DB68C3F30B03054913430B670023184698
:105278001837BD4680BD00BF68004742003802406D
:1052880000700040400E474280B485B000AF78609F
:105298007B6803221A60114BD3F884309B09C3F34F
:1052A80008027B685A600D4BD3F884301B0F03F05B
:1052B80007027B689A60094B9B6803F4F813FB604C
:1052C800064B1B6F03F44072FB681A437B68DA6075
:1052D80000BF1437BD4680BC704700BF003802408D
:1052E80080B487B000AF786000237B6100233B6106
:1052F8000023FB600023BB607B68012B3ED1224B5F
:105308009B6803F40003FB60FB68002B05D0FB6877
:10531800012B2FD11D4B7B612FE01B4B5B6803F4E6
:105328008003B3F5800F08D1174B5B6803F03F0388
:10533800174AB2FBF3F33B6107E0134B5B6803F0DA
:105348003F03144AB2FBF3F33B610F4BD3F88430AD
:105358009B09C3F308023B6902FB03F3BB600A4BDA
:10536800D3F884301B0F03F00703BA68B2FBF3F3DA
:105378007B6102E000237B6100BF00BF7B691846A8
:105388001C37BD4680BC7047003802400080BB0017
:1053980000127A000024F40080B584B000AF786071
:1053A8001D4B00221A60FAF7CDFFF86008E0FAF703
:1053B800C9FF0246FB68D31A022B01D9032326E052
:1053C800164B1B6803F00063002BF0D17B681B6849
:1053D8009A017B685B681B0710491343C1F8843046
:1053E8000D4B01221A60FAF7ADFFF86008E0FAF7F2
:1053F800A9FF0246FB68D31A022B01D9032306E052
:10540800064B1B6803F00063002BF0D000231846FE
:105418001037BD4680BD00BF6800474200380240D3
:1054280080B582B000AF0D4B00221A60FAF78AFFF0
:10543800786008E0FAF786FF02467B68D31A022BE9
:1054480001D9032306E0064B1B6803F00063002B19
:10545800F0D1002318460837BD4680BD6800474292
:105468000038024080B582B000AFFAF76BFF786071
:105478005C4B1B685B4A43F00103136008E0FAF7D2
:1054880061FF02467B68D31A022B01D90323A5E0EA
:10549800544B1B6803F00203002BF0D0514B1B68E0
:1054A800504A43F080031360FAF74CFF78604D4B85
:1054B80000229A600AE0FAF745FF02467B68D31A91
:1054C80041F28832934201D9032387E0454B9B6818
:1054D80003F00C03002BEED1FAF734FF7860414B50
:1054E8001B68404A23F45023136008E0FAF72AFFA8
:1054F80002467B68D31A642B01D903236EE0394B2B
:105508001B6803F40033002BF0D1FAF71BFF786017
:10551800344B1B68334A23F08073136008E0FAF7B2
:1055280011FF02467B68D31A022B01D9032355E0E9
:105538002C4B1B6803F00073002BF0D1FAF702FF25
:105548007860284B1B68274A23F08063136008E0C3
:10555800FAF7F8FE02467B68D31A022B01D9032317
:105568003CE0204B1B6803F00063002BF0D11D4B7F
:105578001D4A5A601B4B1D4AC3F88420194BDB682F
:10558800184A23F4F853D360164BDB68154A23F402
:105598000053D360134BDB68124A43F41F03D360F4
:1055A800104BDB680F4A43F40013D3600D4B5B6F5D
:1055B8000C4A23F0010353670A4B5B6F094A43F017
:1055C800807353670A4B0B4A1A600020FAF778FE7B
:1055D8000346002B01D0012300E0002318460837BA
:1055E800BD4680BD00380240103000040030002065
:1055F8000C0000200024F40080B58AB000AF07F149
:10560800140300221A605A609A60DA601A61002353
:105618003B612D4B1B6B2C4A43F0040313632A4B4D
:105628001B6B03F004033B613B690023FB60264BC3
:105638001B6B254A43F080031363234B1B6B03F05A
:105648008003FB60FB680023BB601F4B1B6B1E4A7B
:1056580043F0010313631C4B1B6B03F00103BB6096
:10566800BB6800237B60184B1B6B174A43F0080389
:105678001363154B1B6B03F008037B607B680022E8
:105688004FF470411148FEF7E4FC01237B61104B95
:10569800BB610023FB6107F1140319460D48FEF7AF
:1056A8002DFA4FF470437B610123BB610123FB6139
:1056B80000233B6207F1140319460448FEF71EFA5B
:1056C80000BF2837BD4680BD00380240000C0240AC
:1056D800000012100000024080B58CB000AF00231B
:1056E8007B601D4B1B6B1C4A43F0080313631A4B6A
:1056F8001B6B03F008037B607B684FF48043FB61FE
:1057080001233B6200237B620223BB6207F11C0377
:1057180019461248FEF7F2F900233B600E4B1B6B4B
:105728000D4A43F0010313630B4B1B6B03F001039A
:105738003B603B680123BB600023FB6002233B61A5
:1057480002237B6107F1080319460548FEF7D6F9DD
:1057580000BF3037BD4680BD00380240000C024013
:105768000000024080B500AFFAF764FD00F02AF8A7
:10577800FFF742FF4FF480511148FEF782FC4FF4C7
:105788009670FAF71DFE4FF480410D48FEF779FC3C
:105798004FF49670FAF714FE4FF400410848FEF7EC
:1057A80070FC4FF49670FAF70BFE4FF40051044862
:1057B800FEF767FC4FF49670FAF702FEDAE700BFCF
:1057C800000C024080B594B000AF07F120033022EE
:1057D8000021184600F04CFB07F10C0300221A6068
:1057E8005A609A60DA601A610023BB60284B1B6C10
:1057F800274A43F080531364254B1B6C03F08053F6
:10580800BB60BB6800237B60224B1B68214A43F4C2
:10581800804313601F4B1B6803F480437B607B68E5
:1058280002233B620123FB6210233B630223BB6319
:105838000023FB6308233B64A8237B640223BB6427
:105848000323FB6407F120031846FEF7ACFE03466A
:10585800002B01D000F020F80F23FB6002233B61EE
:1058680000237B614FF4A053BB614FF48053FB616D
:1058780007F10C0305211846FFF7D6F80346002B5D
:1058880001D000F009F800BF5037BD4680BD00BF09
:10589800003802400070004080B400AF00BFBD4631
:1058A80080BC704780B582B000AF00237B60104B8E
:1058B8005B6C0F4A43F4804353640D4B5B6C03F4F9
:1058C80080437B607B6800233B60094B1B6C084A64
:1058D80043F080531364064B1B6C03F080533B600A
:1058E8003B680720FBF730F800BF0837BD4680BD8E
:1058F8000038024080B400AF00BFBD4680BC70478E
:1059080080B400AFFEE780B400AFFEE780B400AF1C
:10591800FEE780B400AFFEE780B400AF00BFBD462D
:1059280080BC704780B400AF00BFBD4680BC7047E4
:1059380080B400AF00BFBD4680BC704780B500AFE3
:10594800FAF7EEFC00BF80BD80B400AF124B1B68B5
:10595800114A43F0010313600F4B00229A600E4B6B
:105968001B680D4A23F0847323F4803313600A4BB9
:105978000A4A5A60084B1B68074A23F480231360BD
:10598800054B0022DA60064B4FF000629A6000BFB8
:10599800BD4680BC704700BF00380240103000246C
:1059A80000ED00E080B487B000AF00233B61002326
:1059B8007B610223FB600023BB6002237B60324BC8
:1059C8009B6803F00C033B613B69042B09D03B69DE
:1059D800082B0AD03B69002B3DD12C4B2C4A1A606E
:1059E8003DE02A4B2B4A1A6039E0274B5B689B0D38
:1059F80003F00103BB60244B5B6803F03F037B604B
:105A0800BB68002B0CD0234A7B68B2FBF3F31E4A19
:105A180052689209C2F3080202FB03F37B610BE0B0
:105A28001B4A7B68B2FBF3F3174A52689209C2F328
:105A3800080202FB03F37B61134B5B681B0C03F04A
:105A4800030301335B00FB607A69FB68B2FBF3F385
:105A58000E4A136003E00D4B0D4A1A6000BF0A4B53
:105A68009B681B0903F00F030B4AD35C3B61074B90
:105A78001A683B6922FA03F3044A136000BF1C3713
:105A8800BD4680BC704700BF003802400C000020B3
:105A98000024F40040787D01F060000820610008CF
:105AA800000000204404002044040020A804002032
:105AB80053B94AB9002908BF00281CBF4FF0FF316D
:105AC8004FF0FF3000F074B9ADF1080C6DE904CE69
